{
  "contractName": "Migrations",
  "abi": [
    {
      "anonymous": false,
      "inputs": [
        {
          "indexed": false,
          "internalType": "uint256",
          "name": "newValue",
          "type": "uint256"
        }
      ],
      "name": "ValueChanged",
      "type": "event"
    },
    {
      "constant": true,
      "inputs": [],
      "name": "last_completed_migration",
      "outputs": [
        {
          "internalType": "uint256",
          "name": "",
          "type": "uint256"
        }
      ],
      "payable": false,
      "stateMutability": "view",
      "type": "function"
    },
    {
      "constant": true,
      "inputs": [],
      "name": "owner",
      "outputs": [
        {
          "internalType": "address",
          "name": "",
          "type": "address"
        }
      ],
      "payable": false,
      "stateMutability": "view",
      "type": "function"
    },
    {
      "constant": false,
      "inputs": [
        {
          "internalType": "uint256",
          "name": "_value",
          "type": "uint256"
        }
      ],
      "name": "set",
      "outputs": [],
      "payable": false,
      "stateMutability": "nonpayable",
      "type": "function"
    },
    {
      "constant": true,
      "inputs": [],
      "name": "get",
      "outputs": [
        {
          "internalType": "uint256",
          "name": "",
          "type": "uint256"
        }
      ],
      "payable": false,
      "stateMutability": "view",
      "type": "function"
    },
    {
      "constant": false,
      "inputs": [
        {
          "internalType": "uint256",
          "name": "completed",
          "type": "uint256"
        }
      ],
      "name": "setCompleted",
      "outputs": [],
      "payable": false,
      "stateMutability": "nonpayable",
      "type": "function"
    }
  ],
  "bytecode": "0x6080604052336000806101000a81548173ffffffffffffffffffffffffffffffffffffffff021916908373ffffffffffffffffffffffffffffffffffffffff16021790555034801561005057600080fd5b506102cd806100606000396000f3fe608060405234801561001057600080fd5b50600436106100575760003560e01c8063445df0ac1461005c57806360fe47b11461007a5780636d4ce63c146100a85780638da5cb5b146100c6578063fdacd57614610110575b600080fd5b61006461013e565b6040518082815260200191505060405180910390f35b6100a66004803603602081101561009057600080fd5b8101908080359060200190929190505050610144565b005b6100b0610187565b6040518082815260200191505060405180910390f35b6100ce610191565b604051808273ffffffffffffffffffffffffffffffffffffffff1673ffffffffffffffffffffffffffffffffffffffff16815260200191505060405180910390f35b61013c6004803603602081101561012657600080fd5b81019080803590602001909291905050506101b6565b005b60025481565b806001819055507f93fe6d397c74fdf1402a8b72e47b68512f0510d7b98a4bc4cbdf6ac7108b3c596001546040518082815260200191505060405180910390a150565b6000600154905090565b6000809054906101000a900473ffffffffffffffffffffffffffffffffffffffff1681565b6000809054906101000a900473ffffffffffffffffffffffffffffffffffffffff1673ffffffffffffffffffffffffffffffffffffffff163373ffffffffffffffffffffffffffffffffffffffff161461025b576040517f08c379a00000000000000000000000000000000000000000000000000000000081526004018080602001828103825260338152602001806102666033913960400191505060405180910390fd5b806002819055505056fe546869732066756e6374696f6e206973207265737472696374656420746f2074686520636f6e74726163742773206f776e6572a265627a7a7231582083489a11f48088b7e2c51c9a2e903cb708150185e0382f9f1a2e8a3bb9b544ea64736f6c63430005100032",
  "source": "// SPDX-License-Identifier: MIT\npragma solidity >=0.4.22 <0.9.0;\n\ncontract Migrations {\n  address public owner = msg.sender;\n  uint256 private value;\n  uint public last_completed_migration;\n\n  event ValueChanged(uint256 newValue);\n\n  function set(uint256 _value) public {\n        value = _value;\n        emit ValueChanged(value);\n  }\n  function get() public view returns (uint256) {\n       return value;\n  }\n  modifier restricted() {\n    require(\n      msg.sender == owner,\n      \"This function is restricted to the contract's owner\"\n    );\n    _;\n  }\n  function setCompleted(uint completed) public restricted {\n    last_completed_migration = completed;\n  }\n}\n",
  "sourcePath": "/workspaces/tt_truffle/contracts/Migrations.sol",
  "compiler": {
    "name": "solc",
    "version": "0.5.16+commit.9c3226ce.Emscripten.clang"
  },
  "schemaVersion": "3.4.2",
  "updatedAt": "2021-08-04T18:31:42.716Z",
  "networkType": "ethereum",
  "devdoc": {
    "methods": {}
  },
  "userdoc": {
    "methods": {}
  }
}